{"abi":[{"type":"constructor","inputs":[{"name":"_tangleCore","type":"address","internalType":"address"}],"stateMutability":"nonpayable"},{"type":"function","name":"configureModelTier","inputs":[{"name":"modelName","type":"string","internalType":"string"},{"name":"minVramMib","type":"uint32","internalType":"uint32"},{"name":"minGpuCount","type":"uint32","internalType":"uint32"},{"name":"minBandwidthMbps","type":"uint64","internalType":"uint64"}],"outputs":[],"stateMutability":"nonpayable"},{"type":"function","name":"contributions","inputs":[{"name":"","type":"uint64","internalType":"uint64"},{"name":"","type":"address","internalType":"address"}],"outputs":[{"name":"gpuMinutesContributed","type":"uint64","internalType":"uint64"},{"name":"stepsCompleted","type":"uint64","internalType":"uint64"},{"name":"joinedAtEpoch","type":"uint32","internalType":"uint32"},{"name":"leftAtEpoch","type":"uint32","internalType":"uint32"},{"name":"slashed","type":"bool","internalType":"bool"}],"stateMutability":"view"},{"type":"function","name":"createTrainingJob","inputs":[{"name":"baseModel","type":"string","internalType":"string"},{"name":"datasetUrl","type":"string","internalType":"string"},{"name":"method","type":"string","internalType":"string"},{"name":"totalEpochs","type":"uint32","internalType":"uint32"},{"name":"minOperators","type":"uint32","internalType":"uint32"},{"name":"maxOperators","type":"uint32","internalType":"uint32"},{"name":"syncIntervalSteps","type":"uint64","internalType":"uint64"}],"outputs":[{"name":"jobId","type":"uint64","internalType":"uint64"}],"stateMutability":"payable"},{"type":"function","name":"distributePayment","inputs":[{"name":"jobId","type":"uint64","internalType":"uint64"}],"outputs":[],"stateMutability":"nonpayable"},{"type":"function","name":"getJobOperators","inputs":[{"name":"jobId","type":"uint64","internalType":"uint64"}],"outputs":[{"name":"","type":"address[]","internalType":"address[]"}],"stateMutability":"view"},{"type":"function","name":"getJobStatus","inputs":[{"name":"jobId","type":"uint64","internalType":"uint64"}],"outputs":[{"name":"currentEpoch","type":"uint32","internalType":"uint32"},{"name":"totalEpochs","type":"uint32","internalType":"uint32"},{"name":"operatorCount","type":"uint256","internalType":"uint256"},{"name":"completed","type":"bool","internalType":"bool"},{"name":"latestCheckpoint","type":"bytes32","internalType":"bytes32"}],"stateMutability":"view"},{"type":"function","name":"isOperatorInJob","inputs":[{"name":"jobId","type":"uint64","internalType":"uint64"},{"name":"operator","type":"address","internalType":"address"}],"outputs":[{"name":"","type":"bool","internalType":"bool"}],"stateMutability":"view"},{"type":"function","name":"jobs","inputs":[{"name":"","type":"uint64","internalType":"uint64"}],"outputs":[{"name":"baseModel","type":"string","internalType":"string"},{"name":"datasetUrl","type":"string","internalType":"string"},{"name":"method","type":"string","internalType":"string"},{"name":"totalEpochs","type":"uint32","internalType":"uint32"},{"name":"currentEpoch","type":"uint32","internalType":"uint32"},{"name":"minOperators","type":"uint32","internalType":"uint32"},{"name":"maxOperators","type":"uint32","internalType":"uint32"},{"name":"syncIntervalSteps","type":"uint64","internalType":"uint64"},{"name":"latestCheckpointHash","type":"bytes32","internalType":"bytes32"},{"name":"completed","type":"bool","internalType":"bool"},{"name":"totalPayment","type":"uint256","internalType":"uint256"},{"name":"creator","type":"address","internalType":"address"}],"stateMutability":"view"},{"type":"function","name":"joinTraining","inputs":[{"name":"jobId","type":"uint64","internalType":"uint64"}],"outputs":[],"stateMutability":"nonpayable"},{"type":"function","name":"leaveTraining","inputs":[{"name":"jobId","type":"uint64","internalType":"uint64"}],"outputs":[],"stateMutability":"nonpayable"},{"type":"function","name":"modelTiers","inputs":[{"name":"","type":"string","internalType":"string"}],"outputs":[{"name":"minVramMib","type":"uint32","internalType":"uint32"},{"name":"minGpuCount","type":"uint32","internalType":"uint32"},{"name":"minBandwidthMbps","type":"uint64","internalType":"uint64"}],"stateMutability":"view"},{"type":"function","name":"nextJobId","inputs":[],"outputs":[{"name":"","type":"uint64","internalType":"uint64"}],"stateMutability":"view"},{"type":"function","name":"onRegister","inputs":[{"name":"operator","type":"address","internalType":"address"},{"name":"registrationData","type":"bytes","internalType":"bytes"}],"outputs":[],"stateMutability":"nonpayable"},{"type":"function","name":"operatorCaps","inputs":[{"name":"","type":"address","internalType":"address"}],"outputs":[{"name":"gpuCount","type":"uint32","internalType":"uint32"},{"name":"totalVramMib","type":"uint32","internalType":"uint32"},{"name":"networkBandwidthMbps","type":"uint64","internalType":"uint64"},{"name":"gpuModel","type":"string","internalType":"string"},{"name":"endpoint","type":"string","internalType":"string"},{"name":"active","type":"bool","internalType":"bool"}],"stateMutability":"view"},{"type":"function","name":"owner","inputs":[],"outputs":[{"name":"","type":"address","internalType":"address"}],"stateMutability":"view"},{"type":"function","name":"slashOperator","inputs":[{"name":"jobId","type":"uint64","internalType":"uint64"},{"name":"operator","type":"address","internalType":"address"},{"name":"reason","type":"string","internalType":"string"}],"outputs":[],"stateMutability":"nonpayable"},{"type":"function","name":"submitCheckpoint","inputs":[{"name":"jobId","type":"uint64","internalType":"uint64"},{"name":"checkpointHash","type":"bytes32","internalType":"bytes32"},{"name":"epoch","type":"uint32","internalType":"uint32"}],"outputs":[],"stateMutability":"nonpayable"},{"type":"function","name":"tangleCore","inputs":[],"outputs":[{"name":"","type":"address","internalType":"address"}],"stateMutability":"view"},{"type":"function","name":"updateContribution","inputs":[{"name":"jobId","type":"uint64","internalType":"uint64"},{"name":"operator","type":"address","internalType":"address"},{"name":"gpuMinutes","type":"uint64","internalType":"uint64"},{"name":"steps","type":"uint64","internalType":"uint64"}],"outputs":[],"stateMutability":"nonpayable"},{"type":"event","name":"CheckpointSubmitted","inputs":[{"name":"jobId","type":"uint64","indexed":true,"internalType":"uint64"},{"name":"checkpointHash","type":"bytes32","indexed":false,"internalType":"bytes32"},{"name":"epoch","type":"uint32","indexed":false,"internalType":"uint32"}],"anonymous":false},{"type":"event","name":"JobCompleted","inputs":[{"name":"jobId","type":"uint64","indexed":true,"internalType":"uint64"},{"name":"finalCheckpoint","type":"bytes32","indexed":false,"internalType":"bytes32"}],"anonymous":false},{"type":"event","name":"JobCreated","inputs":[{"name":"jobId","type":"uint64","indexed":true,"internalType":"uint64"},{"name":"baseModel","type":"string","indexed":false,"internalType":"string"},{"name":"method","type":"string","indexed":false,"internalType":"string"},{"name":"creator","type":"address","indexed":false,"internalType":"address"}],"anonymous":false},{"type":"event","name":"OperatorJoined","inputs":[{"name":"jobId","type":"uint64","indexed":true,"internalType":"uint64"},{"name":"operator","type":"address","indexed":true,"internalType":"address"},{"name":"epoch","type":"uint32","indexed":false,"internalType":"uint32"}],"anonymous":false},{"type":"event","name":"OperatorLeft","inputs":[{"name":"jobId","type":"uint64","indexed":true,"internalType":"uint64"},{"name":"operator","type":"address","indexed":true,"internalType":"address"},{"name":"epoch","type":"uint32","indexed":false,"internalType":"uint32"}],"anonymous":false},{"type":"event","name":"OperatorRegistered","inputs":[{"name":"operator","type":"address","indexed":true,"internalType":"address"},{"name":"gpuCount","type":"uint32","indexed":false,"internalType":"uint32"},{"name":"vramMib","type":"uint32","indexed":false,"internalType":"uint32"}],"anonymous":false},{"type":"event","name":"OperatorSlashed","inputs":[{"name":"jobId","type":"uint64","indexed":true,"internalType":"uint64"},{"name":"operator","type":"address","indexed":true,"internalType":"address"},{"name":"reason","type":"string","indexed":false,"internalType":"string"}],"anonymous":false},{"type":"event","name":"PaymentDistributed","inputs":[{"name":"jobId","type":"uint64","indexed":true,"internalType":"uint64"},{"name":"operator","type":"address","indexed":true,"internalType":"address"},{"name":"amount","type":"uint256","indexed":false,"internalType":"uint256"}],"anonymous":false}],"bytecode":{"object":"0x608034608657601f611f7038819003918201601f19168301916001600160401b03831184841017608a57808492602094604052833981010312608657516001600160a01b038116908190036086575f80546001600160a01b03191633179055600180546001600160e01b031916909117600160a01b179055604051611ed1908161009f8239f35b5f80fd5b634e487b7160e01b5f52604160045260245ffdfe6080806040526004361015610012575f80fd5b5f3560e01c908163026a599f1461183b575080632378aebb146115ea57806331a44619146115515780633d7815171461149357806350b16aad1461145d578063522849e4146113415780635a936dc6146113195780636759410b1461129c57806367793cc614610eea57806380015fb514610e075780638da5cb5b14610de0578063aea9bc8f14610c8e578063b0c2aa5e14610c65578063cb110dc114610bb3578063d8a24be414610653578063e1f5c50e14610360578063e9d03d2a146102ed578063f3e4657b146101f45763f57fec74146100ed575f80fd5b346101f05760603660031901126101f057610106611901565b61010e61192d565b6044356001600160401b0381116101f0576001600160401b03926101577ffb25ac01058974e6ead6b60530acd5d246cf3ae5f4449d6f030de8eb8ade79c1923690600401611acb565b94909160018060a01b0360015416331480156101dd575b61017790611b7e565b6101896101848683611c2c565b611b45565b165f8181526003602090815260408083206001600160a01b0390971680845296825291829020805460ff60c01b1916600160c01b1790559051818152949591949283926101d892840191611c0c565b0390a3005b505f546001600160a01b0316331461016e565b5f80fd5b346101f05760603660031901126101f05761020d611901565b6024356001600160401b03610220611af8565b9261022e6101843383611c2c565b1691825f52600260205260405f209082600583015563ffffffff6003830161027383829067ffffffff0000000082549160201b169067ffffffff000000001916179055565b857fd8f27d804bad3ffd069aaf85f6b2d1a9de59b2ba18cceec151b72a184589f9b26040848151968988521695866020820152a2541611156102b157005b600601805460ff191660011790556040519081527fcd4ce9426a23fa4c2d5774d1bf724d82a65fd73f97e4d70f6dec7741c7bcf94890602090a2005b346101f05760203660031901126101f0576001600160401b0361030e611901565b165f52600260205260a060405f20600381015490600481015490600560ff6006830154169101549163ffffffff60405194818160201c1686521660208501526040840152151560608301526080820152f35b346101f05760203660031901126101f0576001600160401b03610381611901565b16805f52600260205260405f2060ff6006820154161561061e5760078101805480156105ec5760045f9301908154935f905b85821061055e576001600160401b039150169182159384610526575f90555f5b8581106103dc57005b6103e68183611b1c565b60018060a01b0391549060031b1c1690875f52600360205260405f2060018060a01b0383165f5260205260ff60405f205460c01c1615806104f6575b610431575b60019150016103d3565b875f52600360205260405f2060018060a01b0383165f526020526001600160401b0360405f20541680850290858204036104e257866104ce57859004915f838281156104c4575b5f92839283928392f1156104b957887f32d76c86119184f0ced9b384182d74c679c9db522a4a3629e72c7b3a06ba8ecf6020600195604051908152a3610427565b6040513d5f823e3d90fd5b6108fc9250610478565b634e487b7160e01b5f52601260045260245ffd5b634e487b7160e01b5f52601160045260245ffd5b50875f52600360205260405f2060018060a01b0383165f526020526001600160401b0360405f2054161515610422565b60405162461bcd60e51b815260206004820152601060248201526f6e6f20636f6e747269627574696f6e7360801b6044820152606490fd5b6105688285611b1c565b90545f8981526003602081815260408084209590921b9390931c6001600160a01b031680835293909252205460c01c60ff16156105ab575b5090600101906103b3565b875f52600360205260405f209060018060a01b03165f526020526001600160401b038060405f2054169116016001600160401b0381116104e25760016105a0565b60405162461bcd60e51b815260206004820152600a6024820152691b9bc81c185e5b595b9d60b21b6044820152606490fd5b60405162461bcd60e51b815260206004820152600d60248201526c1b9bdd0818dbdb5c1b195d1959609a1b6044820152606490fd5b60e03660031901126101f0576004356001600160401b0381116101f05761067e903690600401611acb565b906024356001600160401b0381116101f05761069e903690600401611acb565b6044929192356001600160401b0381116101f0576106c0903690600401611acb565b9290946064359563ffffffff87168097036101f0576084359363ffffffff8516978886036101f05760a4359563ffffffff8716998a88036101f05760c4359a6001600160401b038c168c036101f0578315610b795760028210610b425710610b0657600154986001600160401b038a60a01c16996001600160401b038b146104e25767ffffffffffffffff60a01b191660018b810160a01b67ffffffffffffffff60a01b169190911790555f8a8152600260205260409020936001600160401b038711610a145761079b876107958754611959565b87611bbd565b5f87601f8111600114610aa257806107c7925f91610a97575b508160011b915f199060031b1c19161790565b85555b60018501916001600160401b038211610a14576107f1826107eb8554611959565b85611bbd565b5f90601f8311600114610a335761081f92915f9183610a28575b50508160011b915f199060031b1c19161790565b90555b60028301966001600160401b038911610a145760209a8861084e8b6108488e9c54611959565b83611bbd565b5f601f8c1160011461096257928b9592600895926108a8887f744f206cdc260a66362f411917e04521df2ad3ac524ebd9d420b0177c04d78009e9f6109469c9b985f9161095757508160011b915f199060031b1c19161790565b90555b600385018054606093841b63ffffffff60601b16640100000000600160c01b03199096166001600160c01b031990911617604094851b6bffffffff000000000000000016179490941760809190911b67ffffffffffffffff60801b16179092553460078401559290910180546001600160a01b03191633179055905181815295869561093992870191611c0c565b918483038a860152611c0c565b3360408301520390a2604051908152f35b90508b01355f6107b4565b9a959493929190601f1987169b815f528e5f209c5f5b8181106109e15750917f744f206cdc260a66362f411917e04521df2ad3ac524ebd9d420b0177c04d78009c9d89989694926109469b9a6008999795106109c8575b5050600188811b0190556108ab565b8a01355f1960038b901b60f8161c191690555f806109b9565b929496989a9c5090929496989a9c8f60018192868f013581550194019201908e9c9a98969492919d9b999795939d610978565b634e487b7160e01b5f52604160045260245ffd5b013590508e8061080b565b601f19831691845f5260205f20925f5b818110610a7f5750908460019594939210610a66575b505050811b019055610822565b01355f19600384901b60f8161c191690558d8080610a59565b91936020600181928787013581550195019201610a43565b90508a01358f6107b4565b50601f19881690865f528860205f20925f5b8c828210610aec57505010610ad3575b5050600187811b0185556107ca565b8901355f1960038a901b60f8161c191690558c80610ac4565b84013585556001909401936020938401938c935001610ab4565b60405162461bcd60e51b81526020600482015260146024820152736d6178203e3d206d696e206f70657261746f727360601b6044820152606490fd5b60405162461bcd60e51b815260206004820152600f60248201526e6d696e2032206f70657261746f727360881b6044820152606490fd5b60405162461bcd60e51b8152602060048201526012602482015271065706f636873206d757374206265203e20360741b6044820152606490fd5b346101f05760203660031901126101f0576001600160a01b03610bd4611943565b165f5260046020526001600160401b0360405f20805490610c59610bfa600183016119b2565b91610c4b60ff6003610c0e600285016119b2565b9301541693604051968663ffffffff899816885263ffffffff8160201c16602089015260401c16604087015260c0606087015260c0860190611a52565b908482036080860152611a52565b90151560a08301520390f35b346101f0575f3660031901126101f05760206001600160401b0360015460a01c16604051908152f35b346101f05760803660031901126101f0576004356001600160401b0381116101f057610cbe903690600401611acb565b60243563ffffffff81168091036101f057610cd7611af8565b91610ce0611917565b5f549091906001600160a01b03163303610dae576040519360608501908582106001600160401b03831117610a145763ffffffff80610d84946020610dac9a6001600160401b039984976040528b5283828c01961686528960408c0199168952826040519384928337810160058152030190209751161682198754161786555116849067ffffffff0000000082549160201b169067ffffffff000000001916179055565b51825467ffffffffffffffff60401b1916911660401b67ffffffffffffffff60401b16179055565b005b60405162461bcd60e51b815260206004820152600a60248201526937b7363c9037bbb732b960b11b6044820152606490fd5b346101f0575f3660031901126101f0575f546040516001600160a01b039091168152602090f35b346101f05760803660031901126101f057610e20611901565b610e2861192d565b90604435916001600160401b0383168093036101f057610dac926001600160401b03610e52611917565b9360018060a01b036001541633148015610ed7575b610e7090611b7e565b165f9081526003602090815260408083206001600160a01b03959095168352939052829020805467ffffffffffffffff60401b9490931b939093166fffffffffffffffffffffffffffffffff1990921667ffffffffffffffff60401b199190911617179055565b505f546001600160a01b03163314610e67565b346101f05760403660031901126101f057610f03611943565b6024356001600160401b0381116101f057610f22903690600401611acb565b6001546001600160a01b031633148015611289575b610f4090611b7e565b81019060a0818303126101f057610f5681611b0b565b92610f6360208301611b0b565b936040830135926001600160401b0384168094036101f05760608101356001600160401b0381116101f05785610f9a918301611a76565b9460808201356001600160401b0381116101f057610fb89201611a76565b6040519160c08301908382106001600160401b03831117610a145763ffffffff9160405216948583526110916001600160401b0363ffffffff60208601991696878a5260408601908152606086019384526080860194855261106963ffffffff60a088019860018a5260018060a01b03169b8c5f526004602052818060405f209a51161682198a54161789555116879067ffffffff0000000082549160201b169067ffffffff000000001916179055565b51855467ffffffffffffffff60401b1916911660401b67ffffffffffffffff60401b16178455565b51805160018401916001600160401b038211610a14576110b5826107eb8554611959565b602090601f8311600114611226576110e392915f918361121b5750508160011b915f199060031b1c19161790565b90555b51805160028301916001600160401b038211610a145761110a826107eb8554611959565b602090601f831160011461118f57926111638360039460409997947ff261a076036706bb83ebef99ed1096bbda411a577ab8a7caaf9f4aa5d2fa90a49b99975f926111845750508160011b915f199060031b1c19161790565b90555b019051151560ff8019835416911617905582519182526020820152a2005b015190508c8061080b565b90601f19831691845f52815f20925f5b81811061120357509360409896937ff261a076036706bb83ebef99ed1096bbda411a577ab8a7caaf9f4aa5d2fa90a49a98969360019383600398106111ec575b505050811b019055611166565b01515f1983881b60f8161c191690558b80806111df565b9293602060018192878601518155019501930161119f565b015190508a8061080b565b90601f19831691845f52815f20925f5b8181106112715750908460019594939210611259575b505050811b0190556110e6565b01515f1960f88460031b161c1916905589808061124c565b92936020600181928786015181550195019301611236565b505f546001600160a01b03163314610f37565b346101f05760203660031901126101f0576004356001600160401b0381116101f0576020806112d16060933690600401611a76565b604051928184925191829101835e81016005815203019020546001600160401b036040519163ffffffff8116835263ffffffff8160201c16602084015260401c166040820152f35b346101f0575f3660031901126101f0576001546040516001600160a01b039091168152602090f35b346101f05760203660031901126101f0576001600160401b03611362611901565b165f5260026020526113e060405f2061137a816119b2565b90611387600182016119b2565b611393600283016119b2565b9160038101549260058201546001600160401b036113fc60ff600686015416936113ee600787015496600860018060a01b0391015416976040519b8c9b6101808d526101808d0190611a52565b908b820360208d0152611a52565b9089820360408b0152611a52565b9563ffffffff8116606089015263ffffffff8160201c16608089015263ffffffff8160401c1660a089015263ffffffff8160601c1660c089015260801c1660e087015261010086015215156101208501526101408401526101608301520390f35b346101f05760403660031901126101f057602061148961147b611901565b61148361192d565b90611c2c565b6040519015158152f35b346101f05760203660031901126101f0576114ac611901565b6114b96101843383611c2c565b6001600160401b0381165f8181526002602090815260408083206003908101805491845282852033808752945291909320805463ffffffff60a01b191660809490941b63ffffffff60a01b1693909317909255919263ffffffff9261151d91611da8565b5460201c16906040519182527f3b69735b661f5272ca27f8fa053538a7ac8c649169e2302e1397d479c39f618b60203393a3005b346101f05760403660031901126101f05761156a611901565b6001600160401b0361157a61192d565b91165f52600360205260405f209060018060a01b03165f5260205260a060405f205460ff604051916001600160401b03811683526001600160401b038160401c16602084015263ffffffff8160801c16604084015263ffffffff81851c16606084015260c01c1615156080820152f35b346101f05760203660031901126101f057611603611901565b6001600160401b03811690815f52600260205260405f209060ff60068301541661180657335f52600460205260ff600360405f20015416156117d05760048201916003835491019163ffffffff835460601c168210156117a0576116673382611c2c565b61176a57611676903390611c90565b1561172d5768010000000000000000811015610a14576116a48163ffffffff9460016116c294018155611b1c565b81546001600160a01b0360039290921b91821b19163390911b179055565b8054835f52600360205260405f2060018060a01b0333165f5260205260405f20908154908460801b9060601b16908460801b19161790555460201c16906040519182527f16dc60a6da24147394974c4e00a50d7029cd6c54fd6185c70eb36ddc2621d39660203393a3005b60405162461bcd60e51b8152602060048201526015602482015274696e73756666696369656e7420686172647761726560581b6044820152606490fd5b60405162461bcd60e51b815260206004820152600e60248201526d185b1c9958591e481a9bda5b995960921b6044820152606490fd5b60405162461bcd60e51b81526020600482015260086024820152671a9bd888199d5b1b60c21b6044820152606490fd5b60405162461bcd60e51b815260206004820152600e60248201526d1b9bdd081c9959da5cdd195c995960921b6044820152606490fd5b60405162461bcd60e51b815260206004820152600d60248201526c1a9bd88818dbdb5c1b195d1959609a1b6044820152606490fd5b346101f05760203660031901126101f0576001600160401b0361185c611901565b165f526002602052600460405f2001908154808252602082019081935f5260205f20905f5b8181106118e25750505081611897910382611991565b604051918291602083019060208452518091526040830191905f5b8181106118c0575050500390f35b82516001600160a01b03168452859450602093840193909201916001016118b2565b82546001600160a01b0316845260209093019260019283019201611881565b600435906001600160401b03821682036101f057565b606435906001600160401b03821682036101f057565b602435906001600160a01b03821682036101f057565b600435906001600160a01b03821682036101f057565b90600182811c92168015611987575b602083101461197357565b634e487b7160e01b5f52602260045260245ffd5b91607f1691611968565b90601f801991011681019081106001600160401b03821117610a1457604052565b9060405191825f8254926119c584611959565b8084529360018116908115611a3057506001146119ec575b506119ea92500383611991565b565b90505f9291925260205f20905f915b818310611a145750509060206119ea928201015f6119dd565b60209193508060019154838589010152019101909184926119fb565b9050602092506119ea94915060ff191682840152151560051b8201015f6119dd565b805180835260209291819084018484015e5f828201840152601f01601f1916010190565b81601f820112156101f0578035906001600160401b038211610a145760405192611aaa601f8401601f191660200185611991565b828452602083830101116101f057815f926020809301838601378301015290565b9181601f840112156101f0578235916001600160401b0383116101f057602083818601950101116101f057565b6044359063ffffffff821682036101f057565b359063ffffffff821682036101f057565b8054821015611b31575f5260205f2001905f90565b634e487b7160e01b5f52603260045260245ffd5b15611b4c57565b60405162461bcd60e51b815260206004820152600a6024820152693737ba1034b7103537b160b11b6044820152606490fd5b15611b8557565b60405162461bcd60e51b815260206004820152601060248201526f6f6e6c792066726f6d2074616e676c6560801b6044820152606490fd5b601f8211611bca57505050565b5f5260205f20906020601f840160051c83019310611c02575b601f0160051c01905b818110611bf7575050565b5f8155600101611bec565b9091508190611be3565b908060209392818452848401375f828201840152601f01601f1916010190565b6001600160401b03165f526002602052600460405f2001905f918054925b838110611c5957505050505f90565b611c638183611b1c565b905460039190911b1c6001600160a01b0390811690841614611c8757600101611c4a565b50505050600190565b9060018060a01b03165f5260046020526001600160401b0360405f2091165f52600260205260405f2060405190815f825492611ccb84611959565b9360018116908115611d8e5750600114611d55575b506020925060058152030190205463ffffffff81169182611d04575b505050600190565b549163ffffffff8360201c1610611d4f5763ffffffff8160201c1663ffffffff831610611d4f576001600160401b03809160401c169160401c1610611d4b575f8080611cfc565b5f90565b50505f90565b9150505f528160205f205f905b838210611d7657505060209181015f611ce0565b60209192508060019154848701520191018391611d62565b60ff191684525060209380151502830191505f9050611ce0565b6001600160401b03165f526002602052600460405f20015f5b815480821015611e9557611dd58284611b1c565b905460039190911b1c6001600160a01b0390811690851614611dfa5750600101611dc1565b9192505f1982019182116104e257611e31611e18611e559385611b1c565b905460039190911b1c6001600160a01b03169184611b1c565b81546001600160a01b0393841660039290921b91821b9390911b1916919091179055565b80548015611e81575f190190611e6b8282611b1c565b81549060018060a01b039060031b1b1916905555565b634e487b7160e01b5f52603160045260245ffd5b5050505056fea2646970667358221220290057ee8616c44de83c684f474ad4f3bc14b08c76b4771f16c4fca16fda207f64736f6c634300081a0033","linkReferences":{}},"methodIdentifiers":{"configureModelTier(string,uint32,uint32,uint64)":"aea9bc8f","contributions(uint64,address)":"31a44619","createTrainingJob(string,string,string,uint32,uint32,uint32,uint64)":"d8a24be4","distributePayment(uint64)":"e1f5c50e","getJobOperators(uint64)":"026a599f","getJobStatus(uint64)":"e9d03d2a","isOperatorInJob(uint64,address)":"50b16aad","jobs(uint64)":"522849e4","joinTraining(uint64)":"2378aebb","leaveTraining(uint64)":"3d781517","modelTiers(string)":"6759410b","nextJobId()":"b0c2aa5e","onRegister(address,bytes)":"67793cc6","operatorCaps(address)":"cb110dc1","owner()":"8da5cb5b","slashOperator(uint64,address,string)":"f57fec74","submitCheckpoint(uint64,bytes32,uint32)":"f3e4657b","tangleCore()":"5a936dc6","updateContribution(uint64,address,uint64,uint64)":"80015fb5"},"id":23}